:020000040800F2
:1000000028F10120492E000845AE000851AE000835
:1000100059AE000861AE000869AE0008000000009B
:1000200000000000000000000000000071AE0008A9
:100030007DAE00080000000089AE0008995100085C
:10004000B12E0008B12E0008B12E0008B12E000814
:10005000B12E0008B12E0008B12E0008B12E000804
:10006000B12E0008B12E0008B12E0008B12E0008F4
:10007000B12E0008B12E0008B12E0008B12E0008E4
:10008000B12E0008B12E0008B12E0008B12E0008D4
:10009000B12E0008B12E0008B12E0008B12E0008C4
:1000A000B12E0008B12E0008B12E0008B12E0008B4
:1000B00069C2000891600008B12E0008B12E000846
:1000C000B12E0008B12E0008B12E0008B12E000894
:1000D000B12E0008B12E0008E97400084976000826
:1000E000B12E0008B12E000895AE0008B12E000810
:1000F000B12E0008B12E0008B12E0008B12E000864
:10010000B12E0008B12E0008B12E0008B12E000853
:10011000B12E0008B12E0008B12E0008B12E000843
:10012000D5C20008B12E0008B12E0008B12E00087B
:10013000B12E0008B12E0008B12E0008B12E000823
:10014000B12E0008B12E0008B12E0008C9AE00087B
:10015000B12E0008B12E0008B12E0008B12E000803
:10016000B12E0008B12E0008B12E0008B12E0008F3
:10017000B12E0008B12E0008B12E0008B12E0008E3
:10018000B12E0008B12E000810B5054C237833B904
:10019000044B13B10448AFF300800123237010BD5A
:1001A000680A0020000000004C220208084B10B52D
:1001B0001BB108480849AFF300800848036803B939
:1001C00010BD074B002BFBD0BDE81040184700BF07
:1001D000000000004C2202086C0A0020600A002087
:1001E0000000000080B485B000AF78600023FB60A1
:1001F0007B68DB684FF0FF325A607B68DB686FF02A
:1002000080425A61FB7B43F08003FB737B7B43F0AE
:1002100008037B737B68DB68FA689A611437BD4614
:100220005DF8047B704700BF80B586B000AF786092
:100230000023FB7400237B610023FB60032008F094
:10024000EFFB7B68DB681B69FB607B6901337B61CB
:100250007B69174A934201D9002324E0FB68DB0F36
:10026000DBB2002BEAD000237B61FB6843F0010383
:10027000FB607B68DB68FA681A617B68DB681B6976
:10028000FB607B6901337B617B69094A934200D93A
:1002900005E0FB6803F00103DBB2012BEDD0032086
:1002A00008F0BEFBFB7C18461837BD4680BD00BF7A
:1002B000400D030080B489B000AFF860B96011460A
:1002C0001A460B46FB711346BB800023FB76FB6886
:1002D000DB78002B22D100237B610023FB61BB88EC
:1002E0000333002B00DA03339B107B61FB79FA6840
:1002F00032339B0013449B683B610023FB6109E0A0
:10030000BB681A683B691A60FB690133FB61BB6813
:100310000433BB60FA697B699A42F1D3FB7E1846CD
:100320002437BD465DF8047B704700BF80B489B0B8
:1003300000AFF860B9601346FB800023FB61FB88C7
:100340000333002B00DA03339B10BB61FB68D3F847
:10035000D0307B610023FB6109E07B691A68BB68D0
:100360001A60FB690133FB61BB680433BB60FA6947
:10037000BB699A42F1D3BB6818462437BD465DF885
:10038000047B704780B487B000AF78600B46FB7089
:1003900000233B610023FB737B680022DA707B68DB
:1003A00001229A707B6840229A80FB78012B13D13E
:1003B0004FF0A0433B617B680122DA727B68082220
:1003C0001A707B6804225A707B684FF4A072DA803E
:1003D0007B6802221A7211E0FB78002B0ED1454B8C
:1003E0003B617B680022DA727B680C221A707B68A2
:1003F00006225A707B684FF4A062DA803A697B6803
:10040000DA603B6903F500631A467B681A610023D2
:100410007B611CE07B695A013B69134403F510635F
:1004200019467A687B6904339B00134499607B69A1
:100430005A013B69134403F5306319467A687B69B6
:1004400014339B00134459607B6901337B617B68E3
:100450005B781A467B699A42DCD83B6903F5806376
:100460001A467B685A613B6903F588631A467B68C4
:10047000C3F8CC2000237B610FE07B695A013B6904
:10048000134403F5A06319467A687B6922339B0005
:10049000134499607B6901337B617B681B781A4642
:1004A0007B699A42E9D800237B610FE07B691A03DC
:1004B0003B69134403F5805319467A687B693233EC
:1004C0009B00134499607B6901337B617B681B78D7
:1004D0001A467B699A42E9D83B6903F560631A467C
:1004E0007B68C3F80C21FB7B18461C37BD465DF8C2
:1004F000047B70470000044080B586B000AF786090
:100500000023FB7500233B610023FB600023BB60DD
:100510007B681B7A012B42D17B68DB689B6BFB609D
:10052000BB7B6FF30003BB737B685B7A002B03D04C
:10053000BB7B43F01003BB737B68DB68FA689A638C
:1005400000233B617B68DB68DB683B613B7C6FF3CE
:1005500086133B74BB7C6FF38613BB74BB7C6FF359
:100560004103BB74BB7C6FF3C303BB747B68DB6864
:100570003A69DA607868FFF757FE7B68DB78012B11
:1005800039D13B7A052262F344033B723B7A43F054
:1005900020033B727B68DB68BA689A602BE07B685B
:1005A000DB68DB683B613B7C43F040033B747B686A
:1005B000DB683A69DA607868FFF736FE0023FB6093
:1005C000BB7B43F00103BB73BB7B43F00403BB73F2
:1005D000BB7B43F00803BB737B685B7A002B03D0C3
:1005E000BB7B43F01003BB737B68DB68FA689A63DC
:1005F000142008F039FA7B68DB78012B10D17B6876
:10060000DB689B68BB603B7A052262F344033B7264
:100610003B7A43F020033B727B68DB68BA689A60E0
:10062000FB7D18461837BD4680BD00BF80B485B03D
:1006300000AF78600023FB730023BB603B7A43F07C
:1006400001033B727B68DB687A68D2689168BA689C
:100650000A439A60FB7B18461437BD465DF8047B5D
:10066000704700BF80B485B000AF78600023FB7393
:100670000023BB603B7A43F001033B727B68DB687D
:100680007A68D2689168BA68D2430A409A60FB7B64
:1006900018461437BD465DF8047B704780B586B0B8
:1006A00000AF786039600023FB7400237B61002376
:1006B000FB60FB6843F02003FB603B68DBB203F0A8
:1006C0001F03DBB203F01F039B01FA6822F4F862F8
:1006D0001343FB607B68DB68FA681A617B68DB6840
:1006E0001B69FB607B6901337B617B69094A93422B
:1006F00000D906E0FB685B0903F00103DBB2012BC4
:10070000ECD0032008F08CF9FB7C18461837BD4666
:1007100080BD00BF400D030080B586B000AF78609B
:100720000023FB7400237B610023FB60FB6843F024
:100730001003FB607B68DB68FA681A617B68DB6822
:100740001B69FB607B6901337B617B69094A9342CA
:1007500000D906E0FB681B0903F00103DBB2012BA3
:10076000ECD0032008F05CF9FB7C18461837BD4636
:1007700080BD00BF400D030080B584B000AF78603D
:100780000B46FB700023FB737B68DB68DB68BB6098
:10079000FB7A6FF34513FB72FB7A6FF38613FB72E0
:1007A000FB78012B04D1FB7A43F02003FB7206E0B7
:1007B000FB78002B03D1FB7A43F04003FB727B688C
:1007C000DB68BA68DA60322008F04EF9FB7B184625
:1007D0001037BD4680BD00BF80B483B000AF7860E5
:1007E0007B68DB685B6903F0010318460C37BD4684
:1007F0005DF8047B704700BF80B582B000AF7860C1
:100800007868FFF7E9FF0346012B14BF012300239B
:10081000DBB218460837BD4680BD00BF80B485B046
:1008200000AF78600023FB607B68DB685B69FB607E
:100830007B68DB689B69FA681340FB60FB681846BD
:100840001437BD465DF8047B704700BF80B485B0A7
:1008500000AF78600B46FB707B681B691B68FB6010
:10086000FB7803F00303DAB23B7B62F301033B73D3
:100870007B681B69FA681A601437BD465DF8047B13
:10088000704700BF80B58CB000AF7860002387F858
:100890002B3000237B6200233B620023FB6100239B
:1008A000BB6100237B617B68D3F80C3100221A60A6
:1008B0007B681B691B683B6297F821306FF3C403A8
:1008C00087F821307B681B693A6A1A607B68DB7A9B
:1008D000012B33D178680321FFF7B8FF7B68DB6811
:1008E00080225A622023FB838023BB837B68DB68E2
:1008F000FA699A62BA8BFB8B13449BB23B838023C9
:100900007B837B68DB68BA69C3F804213A8B7B8BF5
:1009100013449BB23B8320237B837B68DB68BA69EB
:10092000C3F808213A8B7B8B13449BB23B83002393
:100930007B837B68DB68BA69C3F80C217868102177
:10094000FFF7ACFE7868FFF7E7FE7B681B690022C3
:100950001A617B681B6900225A617B681B694FF032
:10096000FF329A617B681B690022DA610023FB6217
:100970003AE07A68FB6A04339B0013449B681B6867
:100980007B6297F8273023F07F03DBB2002B0ED079
:1009900000237B6297F8273043F0400387F8273025
:1009A00097F8273043F0080387F8273001E0002349
:1009B0007B627A68FB6A04339B0013449B687A6A03
:1009C0001A607A68FB6A04339B0013449B68002218
:1009D0001A617A68FB6A04339B0013449B68FF2208
:1009E0009A60FB6A0133FB627B685B781A46FB6A9C
:1009F0009A42BED80023FB6235E07A68FB6A143362
:100A00009B0013445B681B68FB60FB7B23F07F0348
:100A1000DBB2002B0AD00023FB60FB7B43F04003DA
:100A2000FB73FB7B43F00803FB7301E00023FB60D7
:100A30007A68FB6A14339B0013445B68FA681A6097
:100A40007A68FB6A14339B0013445B6800221A61C6
:100A50007A68FB6A14339B0013445B68FF229A6038
:100A6000FB6A0133FB627B685B781A46FB6A9A4239
:100A7000C3D800237B617B7D43F001037B757B68DA
:100A80001B697A68126911697A69D24311407A69DF
:100A90000A431A617B68DB78012B1BD100233B6181
:100AA0003B7C43F001033B743B7C43F002033B740B
:100AB0003B8A402262F38A033B82BB7C43F0010302
:100AC000BB747B8A402262F349037B827B681B698B
:100AD0003A691A63786800F007F897F82B301846DF
:100AE0003037BD4680BD00BF80B584B000AF7860B0
:100AF0000023FB730023BB607B68DB6800229A61E4
:100B00007B68DB686FF080425A617868FFF76AFBA8
:100B10007B68DB78002B03D13B7A43F010033B72F8
:100B20007B7A43F008037B727B7A43F010037B727D
:100B30007B7A43F020037B72BB7A43F00403BB72E1
:100B4000BB7A43F00803BB723B7A43F008033B7265
:100B5000BB7A43F01003BB72BB7A43F02003BB7235
:100B6000FB7A43F04003FB723B7A43F004033B7291
:100B70007B68DB687A68D2689169BA68D2431140B1
:100B8000BA680A439A61FB7B18461037BD4680BDA0
:100B900080B485B000AF78600023FB737B681B696D
:100BA0009B68BB603B7AC3F34103DBB2022B09D0E5
:100BB000032B04D0012B02D00323FB7305E0022397
:100BC000FB7302E00123FB7300BFFB7B1846143765
:100BD000BD465DF8047B704780B487B000AF786095
:100BE0000023FB750023BB607B681B699B683B612E
:100BF0007B689B691B68FB603B7CC3F34103DBB2F2
:100C0000022B04D0BB896FF30A03BB8105E0BB89CB
:100C1000032262F30A03BB8100BF7B689B69FA6809
:100C20001A607B7A43F001037B727B681B697A68E8
:100C300012695168BA68D2431140BA680A435A60CF
:100C4000FB7D18461C37BD465DF8047B704700BF2E
:100C500080B487B000AF786039600023FB74002354
:100C6000FB600023BB603B685B78012B0FD13B68C6
:100C70001B787A6804339B0013449B687B613B6854
:100C80001B781A46012393409BB23B810EE03B68E0
:100C90001B787A6814339B0013445B687B613B6864
:100CA0001B781A46012393409BB27B817B691B68AA
:100CB000FB607B7B23F07F03DBB2002B27D13B68FB
:100CC0009B689BB2C3F30A039AB2BB8962F30A031F
:100CD000BB813B68DB7803F00303DAB2BB7B62F3D2
:100CE0008303BB733B68DB88DBB203F00F03DAB22C
:100CF000FB8962F38913FB81FB7B43F01003FB73D9
:100D00007B7B43F080037B73FA687B691A607B68A6
:100D10001B697A681269D169BA680A43DA61FB7C97
:100D200018461C37BD465DF8047B704780B487B019
:100D300000AF786039600023FB740023FB60002360
:100D4000BB603B685B78012B0FD13B681B787A68EE
:100D500004339B0013449B687B613B681B781A46F5
:100D6000012393409BB23B810EE03B681B787A687D
:100D700014339B0013445B687B613B681B781A4605
:100D8000012393409BB27B817B7B6FF3C7137B7303
:100D9000FA687B691A607B681B697A681269D16995
:100DA000BA68D2430A40DA61FB7C18461C37BD465C
:100DB0005DF8047B704700BF80B588B000AF7860F5
:100DC00039600023FB770023BB6100237B61002394
:100DD0003B613B685B78012B40F0AB803B681B7844
:100DE0007A6804339B0013449B681B687B613B68F3
:100DF0001B787A6804339B0013449B681B693B6132
:100E00003B685B69002B09D13B696FF312033B61BF
:100E10007B8A012262F3CC037B8222E03B685B6920
:100E2000C3F312023B6962F312033B613B685A69E8
:100E30003B689B6813445A1E3B689B68B2FBF3F304
:100E40009BB2C3F309039AB27B8A62F3CC037B8221
:100E50003B68DB78012B04D1FB7C012262F3461353
:100E6000FB743B681B787A6804339B0013449B68CF
:100E70003A691A617B68DB78012B0AD13B681B78E1
:100E80007A6804339B0013449B683A6812695A617C
:100E900015E03B68DB78012B11D03B685B69002BC8
:100EA0000DD03B681B781A4601239340BB617B68D9
:100EB0001B697A681269516BBA690A435A633B68C5
:100EC000DB78012B14D17B681B699B68FB60FB6896
:100ED000C3F30D239BB203F00103002B04D1FB7D70
:100EE00043F02003FB7503E0FB7D43F01003FB752B
:100EF000FB7D43F00403FB75FB7D43F08003FB7532
:100F00003B681B787A6804339B0013449B687A69BA
:100F10001A603B68DB78012B40F089803B68D96818
:100F20003B681A783B685B699BB27868FFF7C2F947
:100F30007DE03B681B787A6814339B0013445B6840
:100F40001B687B613B681B787A6814339B001344F1
:100F50005B681B693B613B685B69002B0DD13B689B
:100F60009B68C3F312023B6962F312033B617B8A05
:100F7000012262F3CC037B8220E03B685A693B6824
:100F80009B6813445A1E3B689B68B2FBF3F39BB209
:100F9000C3F309039AB27B8A62F3CC037B827B8A18
:100FA000C3F3C9039BB21A463B689B6803FB02F379
:100FB000C3F312023B6962F312033B613B681B7887
:100FC0007A6814339B0013445B683A691A617B6842
:100FD000DB78012B09D13B681B787A6814339B00BE
:100FE00013445B683A6812695A613B68DB78012BED
:100FF0000CD13B685B79002B04D0FB7D43F02003D0
:10100000FB7503E0FB7D43F01003FB75FB7D43F0B4
:101010000403FB75FB7D43F08003FB753B681B7885
:101020007A6814339B0013445B687A691A60FB7F0B
:1010300018462037BD4680BD80B489B000AF7860C7
:1010400039600023FB770023BB6100233B61002351
:10105000BB603B685B78012B70D17B689B697B61CF
:101060007B691B683B617B691B69BB603B685B6993
:10107000002B09D13B7A6FF306033B72BB7A012246
:1010800062F3C403BB7223E03B685A693B689B6808
:101090009A420ED93B689A683B685A613B689B68E4
:1010A000DBB203F07F03DAB23B7A62F306033B72F2
:1010B00009E03B685B69DBB203F07F03DAB23B7A9D
:1010C00062F306033B72BB7A012262F3C403BB7274
:1010D000BA687B691A617B68DB78012B09D13B68B0
:1010E0001B787A6804339B0013449B683A68126942
:1010F0005A61FB7C43F00403FB74FB7C43F08003E8
:10110000FB743A697B691A607B68DB78002B76D1C7
:101110003B685B69002B72D03B681B781A46012341
:1011200093401A46BB691343BB617B681B697A68AD
:101130001269516BBA690A435A6360E03B681B78D5
:101140007A6814339B0013445B681B683B613B68FF
:101150001B787A6814339B0013445B681B69BB607F
:101160003B685B69002B0FD13B689B68DBB203F0E7
:101170007F03DAB23B7A62F306033B72BB7A012249
:1011800062F3C403BB7212E03B689A683B685A6121
:101190003B689B68DBB203F07F03DAB23B7A62F311
:1011A00006033B72BB7A012262F3C403BB723B6845
:1011B0001B787A6814339B0013445B68BA681A6121
:1011C0007B68DB78012B09D13B681B787A68143384
:1011D0009B0013445B683A6812695A61FB7C43F0D8
:1011E0000403FB74FB7C43F08003FB743B681B78B7
:1011F0007A6814339B0013445B683A691A60FB7F7A
:1012000018462437BD465DF8047B704780B487B02C
:1012100000AF786039600023FB750023FB603B68FA
:101220005B78012B1CD13B681B787A6804339B00E8
:1012300013449B683B613B691B68FB60FB7B23F0AD
:101240007F03DBB2002B03D0FB7B43F04003FB7337
:10125000BB7B43F02003BB73FA683B691A6011E063
:101260003B681B787A6814339B0013445B683B61CE
:101270003B691B68FB60BB7B43F02003BB73FA68D0
:101280003B691A60FB7D18461C37BD465DF8047B40
:10129000704700BF80B487B000AF7860396000232A
:1012A000FB740023FB603B685B78012B08D13B6833
:1012B0001B787A6804339B0013449B687B6107E0CA
:1012C0003B681B787A6814339B0013445B687B612E
:1012D0007B691B68FB60BB7B6FF34513BB733B688B
:1012E000DB78032B03D03B68DB78022B03D1FB7B3D
:1012F00043F01003FB73FA687B691A60FB7C1846A5
:101300001C37BD465DF8047B704700BF80B485B0D4
:1013100000AF78607B681B699B69FB607B681B6919
:10132000DB69FA681340FB60FB681B0C1846143736
:10133000BD465DF8047B704780B485B000AF78602F
:101340000B46FB70FB787A6814339B0013445B6890
:101350009B68FB607B681B695B69FA681340FB60F4
:10136000FB6818461437BD465DF8047B704700BF24
:1013700080B485B000AF78607B681B699B69FB60B7
:101380007B681B69DB69FA681340FB60FB689BB2F2
:1013900018461437BD465DF8047B704780B487B0AB
:1013A00000AF786000233B61FB7C43F0C003FB741B
:1013B000BB7C012262F3C403BB743B7C182262F342
:1013C00006033B747B685B6D3A691A617B68DB7866
:1013D000012B16D10023FB607B685B6D7A6802F2FB
:1013E000CC525A617B685B6D1B68FB60FB7B43F0F2
:1013F0008003FB734FF08023FB607B685B6DFA68B2
:101400001A601C37BD465DF8047B704780B485B018
:1014100000AF78607B689B7A002B1BD07B681B69D0
:101420009B68FB603B7B03F00103DBB2002B11D018
:101430007B6803F586731B68BB603B7A6FF34103DF
:101440003B723B7A6FF300033B727B68D3F80C313D
:10145000BA681A601437BD465DF8047B704700BF58
:101460000EB480B587B000AF78600023FB607B6866
:1014700093F81231032B48D107F12803BB602648AB
:10148000796ABA680CF060FA0346FB6000237B615E
:1014900037E0224B1B6820497A690A441178204AB8
:1014A000D1541E4B1B6801331C4A13601B4B1B6835
:1014B00040F2FF7293420BD11A4B1B68B3F5006FD9
:1014C00006D100BF174B1A68144B1B689A42F9D11A
:1014D000124B1B68B3F5006F10D1134B3B6100BF7B
:1014E000104B1A680D4B1B689A4204D03B695A1E78
:1014F0003A61002BF4D1094B00221A607B69013359
:101500007B617A69FB689A42C3D31C37BD46BDE84C
:10151000804003B0704700BF3C0D0020CC0A002083
:10152000D8DD0120D00A0020008A660080B400AF18
:10153000BD465DF8047B704780B483B000AF0346BE
:10154000FB71FB79002B02D0012B02D002E000BF1F
:1015500000E000BF0C37BD465DF8047B704700BF5C
:1015600080B500AF0248042105F09CFD80BD00BF9E
:10157000000C024080B500AF0248042105F0A0FD38
:1015800080BD00BF000C024080B400AFBD465DF8D6
:10159000047B704780B400AFBD465DF8047B7047A4
:1015A00080B500AF0248042105F08AFD80BD00BF70
:1015B000000C0240B0B582B000AF87ED000BD7E958
:1015C00000014FF000024FF000030BF0F9FD03465D
:1015D000002B04D03C687B6883F0004501E0D7E92C
:1015E000004545EC174BB0EE470AF0EE670A0837A6
:1015F000BD46B0BD000000002DE9B043BCB000AF57
:10160000F860B9607A603B601423C7F8A4304FF0EB
:1016100000024FF00003C7E92E23D7E92E23C7E9C4
:101620003023D7E93023C7E93223D7E93223C7E98A
:101630003823D7E93823C7E93423D7E93423C7E966
:1016400036230023C7F8EC309AE0D7F8EC305B0083
:10165000BA6813441B881BB218460BF0D9FA02462D
:101660000B46C7E92623D7F8EC305B007A681344B1
:101670001B881BB218460BF0CBFA02460B46C7E993
:101680002423D7E92601D7E926230BF027FB0246BE
:101690000B4614461D46D7E92401D7E924230BF055
:1016A0001DFB02460B46204629460BF065F9024613
:1016B0000B46C7E92223D7E92601D7E924230BF0FB
:1016C0000DFB02460B46D7E938010BF055F90246EF
:1016D0000B46C7E93823D7E92601D7E926230BF0C3
:1016E000FDFA02460B46D7E936010BF045F90246F2
:1016F0000B46C7E93623D7E92401D7E924230BF0A9
:10170000EDFA02460B46D7E934010BF035F90246F3
:101710000B46C7E93423D7E92601D7E922230BF08A
:10172000DDFA02460B46D7E932010BF025F90246F5
:101730000B46C7E93223D7E92401D7E922230BF06E
:10174000CDFA02460B46D7E930010BF015F90246F7
:101750000B46C7E93023D7E92201D7E922230BF052
:10176000BDFA02460B46D7E92E010BF005F90246F9
:101770000B46C7E92E23D7F8EC300133C7F8EC301D
:10178000D7F8EC20FB689A42FFF65FAFF8680BF0E1
:101790003FFA02460B46D7E936010BF0C9FB024679
:1017A0000B46C7E93623F8680BF032FA02460B46BF
:1017B000D7E934010BF0BCFB02460B46C7E93423E2
:1017C000F8680BF025FA02460B46D7E938010BF012
:1017D000AFFB02460B46C7E93823F8680BF018FA4E
:1017E00002460B46D7E932010BF0A2FB02460B463C
:1017F000C7E93223F8680BF00BFA02460B46D7E92B
:1018000030010BF095FB02460B46C7E93023F86820
:101810000BF0FEF902460B46D7E92E010BF088FBD0
:1018200002460B46C7E92E23D7E93601D7E9342310
:101830000BF0A2F802460B46C7E92023D7E9360190
:10184000D7E934230BF04AFA02460B4614461D46EC
:10185000D7E93801D7E938230BF040FA02460B46A6
:10186000204629460BF086F802460B46C7E91E23A0
:10187000D7E92001D7E920230BF030FA02460B46C6
:10188000D7E92E010BF076F802460B46C7E91C2378
:10189000D7E920014FF00002744B0BF01FFA02460B
:1018A0000B46C7E91A23D7E920014FF00002704B1D
:1018B0000BF014FA02460B4610461946D7E92023CE
:1018C0000BF00CFA02460B4610461946D7E92E23B8
:1018D0000BF050F802460B46C7E91823D7E91C0164
:1018E000D7E920230BF0FAF902460B4614461D46B1
:1018F000D7E91E014FF000025C4B0BF0EFF90246F6
:101900000B4610461946D7E920230BF0E7F90246AB
:101910000B46204629460BF02FF802460B4614468C
:101920001D46D7E93201D7E932230BF0D7F9024639
:101930000B46204629460BF01DF802460B4614467E
:101940001D46D7E93001D7E930230BF0C7F902462D
:101950000B46204629460BF00DF802460B46C7E918
:101960001623D7E93201D7E934230BF0B7F9024641
:101970000B4614461D46D7E93001D7E938230BF052
:10198000ADF902460B46204629460AF0F3FF02460F
:101990000B4610461946D7E932230BF09FF9024651
:1019A0000B4614461D46D7E93001D7E936230BF024
:1019B00095F902460B4690469946D7E93201D7E998
:1019C00038230BF08BF902460B46404649460AF095
:1019D000D1FF02460B4610461946D7E930230BF0DB
:1019E0007DF902460B46204629460AF0C5FF02460D
:1019F0000B4614461D46D7E91C01D7E91E230BF000
:101A00006DF902460B46204629460AF0B3FF02460E
:101A10000B46C7E91423D7E91823104619460AF0E4
:101A2000ABFF02460B46C7E91223D7E91A2310463B
:101A300019460AF0A1FF02460B4610461946D7E99F
:101A40001A230AF099FF02460B46C7E910234FF00C
:101A500000024FF00003C7E92C23D7E91423C7E99C
:101A60002A230023C7F8E830A6E000BF000010409A
:101A7000000008C0D7E91001D7E92C230BF02EF99C
:101A800002460B4610461946D7E912230AF074FFA6
:101A900002460B4610461946D7E92C230BF01EF9D7
:101AA00002460B4610461946D7E916230AF064FF92
:101AB00002460B46C7E90E23D7E92A01D7E90E23D0
:101AC0000BF036FA02460B46D7E92C010AF052FF1A
:101AD00002460B46C7E90C23D7E90C01D7E92C23B2
:101AE0000BF064FB0346002B6DD1D7E90C019AA3E0
:101AF000D3E900230BF082FB0346002B63D1D7E927
:101B00000C0197A3D3E900230BF05AFB0346002BEB
:101B100059D1D7E90C01D7E91A230BF0DFF80246B7
:101B20000B4610461946D7E918230AF025FF02464E
:101B30000B4610461946D7E90C230BF0CFF80246A6
:101B40000B4610461946D7E916230AF015FF024640
:101B50000B4610461946D7E90C230BF0BFF8024696
:101B60000B4610461946D7E914230AF005FF024632
:101B70000B46C7E90A2397ED0A0BFFF71BFD55EC4F
:101B8000104B97ED2A0BFFF715FD53EC102B204659
:101B900029460BF029FB0346002B00D013E0D7E9C0
:101BA0000C23C7E92C23D7E90A23C7E92A23D7F84E
:101BB000E8300133C7F8E830D7F8E820D7F8A43088
:101BC0009A42FFF657AFD7E92C01D7E92C230BF047
:101BD00085F802460B4614461D46D7E92C01D7E985
:101BE00020230BF07BF802460B46204629460AF0DC
:101BF000C1FE02460B4610461946D7E91E230AF0DD
:101C0000BBFE02460B46C7E90823D7E93401D7E9F2
:101C10002C230AF0AFFE02460B4610461946D7E9C0
:101C200032230BF05BF802460B4614461D46D7E9FB
:101C30003001D7E938230BF051F802460B46204615
:101C400029460AF097FE02460B4610461946D7E988
:101C500008230BF06DF902460B46104619464FF06B
:101C600000024FF080430BF063F902460B46C7E9D0
:101C70000623D7E93601D7E92C230AF07BFE02467A
:101C80000B4610461946D7E930230BF027F80246D9
:101C90000B4614461D46D7E93201D7E938230BF02D
:101CA0001DF802460B46204629460AF063FE02460E
:101CB0000B4610461946D7E908230BF039F90246BE
:101CC0000B46104619464FF000024FF080430BF0D0
:101CD0002FF902460B46C7E904233968D7E90623E2
:101CE000C1E90023D7F80811D7E90423C1E900238B
:101CF000D7E90601D7E906230AF0F0FF02460B46B2
:101D000014461D46D7E90401D7E904230AF0E6FF8B
:101D100002460B46204629460AF02EFE02460B4696
:101D200010461946D7E920230AF026FE02460B4644
:101D300043EC172BB0EE470AF0EE670A0AF018FBE7
:101D4000B0EE407AF0EE607AD7F80C3183ED007B8C
:101D5000F037BD46BDE8B083000000007E842E4110
:101D6000000000007E842EC12DE9B04392B000AF88
:101D700078623962FA6187ED040B87ED021B87ED0B
:101D8000002B4FF000024FF00003C7E9102300239F
:101D9000FB6390E0FB6B5B003A6A13441B881BB249
:101DA00018460AF035FF02460B4610461946D7E999
:101DB00004230AF0DFFD02460B46C7E90C23FB6B48
:101DC0005B00FA6913441B881BB218460AF020FF17
:101DD00002460B4610461946D7E902230AF0CAFD0F
:101DE00002460B46C7E90A23D7E90C01D7E90C23C1
:101DF0000AF074FF02460B4614461D46D7E90A0155
:101E0000D7E90A230AF06AFF02460B462046294614
:101E10000AF0B2FD02460B4643EC172BB0EE470A20
:101E2000F0EE670A0AF0A4FA53EC102B104619469C
:101E3000D7E900230AF09EFD02460B4614461D46D4
:101E4000D7E90C01D7E90C230AF048FF02460B46FC
:101E500090469946D7E90A01D7E90A230AF03EFFDE
:101E600002460B46404649460AF086FD02460B46AE
:101E700043EC172BB0EE470AF0EE670A0AF078FA47
:101E800053EC102B10461946D7E900230AF072FDD7
:101E900002460B46204629460AF020FF02460B4622
:101EA000D7E910010AF068FD02460B46C7E9102386
:101EB000FB6B0133FB63FA6B7B6A9A42FFF66AAFF6
:101EC000786A0AF0A5FE02460B46D7E910010BF02E
:101ED0002FF802460B4643EC172BB0EE470AF0EE04
:101EE000670A0AF045FAB0EE407AF0EE607AB0EE9A
:101EF000470AF0EE670A4837BD46BDE8B08300BF29
:101F0000B0B5D6B000AF07F12C04206007F128006F
:101F1000016007F124010A6007F1180282ED000B4D
:101F200007F1100282ED001B07F1080282ED002B81
:101F30003A4682ED003B07F1200213601423C7F8F4
:101F40000C314FF00002524BC7E940234AA3D3E9BA
:101F50000023C7E93E234AA3D3E90023C7E93C2372
:101F600049A3D3E90023C7E93A234A4907F11803F3
:101F7000D3E90023C1E90423464907F11003D3E95B
:101F80000023C1E90623434907F10803D3E90023ED
:101F9000C1E908233F4B93ED045B3E4B93ED066B89
:101FA0003C4B93ED087B07F12C0107F1280207F168
:101FB0002403086811681A68B0EE450AF0EE650A55
:101FC000B0EE461AF0EE661AB0EE472AF0EE672A37
:101FD000FFF7CAFEB0EE407AF0EE607A2D4B83ED4B
:101FE000007B3B46D3E90023C7E950230023C7F811
:101FF0005431D7F85431C7F84831D7F84831C7F8C9
:102000004C31254A234B14461D460FCD0FC40FCD2E
:102010000FC495E80F0084E80F00D7F84C31013366
:10202000C7F84C31D7F84C21D7F80C319A4204DD6F
:102030000123C7F8543100F032BC4FF000024FF0DA
:102040000003C7E94423D7E94423C7E94623D7E976
:102050004623C7E94823D7E94823C7E94A23D7E9F4
:102060004A23C7E94C23D7E94C23C7E94E23002371
:10207000C7F85031C5E000BF7B14AE47E17AA43FFA
:102080000000000080842E412B69A4292B1B603E98
:1020900000002440700E0020400E0020D7F8503180
:1020A0005B0007F12802126813441B881BB2184614
:1020B0000AF0AEFDB44BD3E904230AF05BFC024600
:1020C0000B46C7E93823D7F850315B0007F12402EB
:1020D000126813441B881BB218460AF099FDAA4BDC
:1020E000D3E906230AF046FC02460B46C7E936232D
:1020F000D7E93801D7E938230AF0F0FD02460B464C
:1021000014461D46D7E93601D7E936230AF0E6FD25
:1021100002460B46204629460AF02EFC02460B4694
:1021200043EC172BB0EE470AF0EE670A0AF020F9ED
:1021300087ED340BD7E93801D7E934230AF0F8FEEC
:1021400002460B46C7E93223D7E93601D7E93423E3
:102150000AF0EEFE02460B46C7E93023D7E94E01EE
:10216000D7E932230AF008FC02460B46C7E94E23A2
:10217000D7E94C01D7E930230AF0FEFB02460B46B3
:10218000C7E94C23D7E93201D7E932230AF0A6FD8B
:1021900002460B46D7E94A010AF0EEFB02460B461F
:1021A000C7E94A23D7E93001D7E930230AF096FD81
:1021B00002460B46D7E948010AF0DEFB02460B4611
:1021C000C7E94823D7E93201D7E930230AF086FD71
:1021D00002460B46D7E946010AF0CEFB02460B4603
:1021E000C7E94623D7E94401D7E934230AF0C4FB01
:1021F00002460B46C7E94423D7F850310133C7F8EC
:10220000503107F12C03D7F850211B689A42FFF692
:1022100045AF07F12C0318680AF0FAFC02460B469A
:10222000D7E94E010AF084FE02460B46C7E94E2369
:1022300007F12C0318680AF0EBFC02460B46D7E9BD
:102240004C010AF075FE02460B46C7E94C2307F124
:102250002C0318680AF0DCFC02460B46D7E94A0159
:102260000AF066FE02460B46C7E94A2307F12C0333
:1022700018680AF0CDFC02460B46D7E948010AF07F
:1022800057FE02460B46C7E9482307F12C0318689E
:102290000AF0BEFC02460B46D7E946010AF048FEAA
:1022A00002460B46C7E9462307F12C0318680AF0DB
:1022B000AFFC02460B46D7E944010AF039FE02465C
:1022C0000B46C7E94423304BD3E904452E4BD3E9F1
:1022D000082310461946D7E94E230AF0FFFC0246B0
:1022E0000B46204629460AF047FB02460B46C7E943
:1022F0002E23254BD3E90645234BD3E9082310466B
:102300001946D7E94C230AF0E9FC02460B46204661
:1023100029460AF031FB02460B46C7E92C231A4B2B
:10232000D3E9082310461946D7E944230AF022FBD3
:1023300002460B46C7E92A23D7E92E01D7E92E2307
:102340000AF0CCFC02460B4614461D46D7E92C0188
:10235000D7E92C230AF0C2FC02460B462046294648
:102360000AF00AFB02460B4614461D46D7E92A012D
:10237000D7E92A230AF0B2FC02460B46204629463A
:102380000AF0FAFA024601E0400E00200B4643EC48
:10239000172BB0EE470AF0EE670A09F0E9FFB0EE3E
:1023A000407AF0EE607ABF4B83ED027BBD4BD3E900
:1023B0000223BD49C1E90223D7E94A01D7E95023E5
:1023C0000AF0DAFA02460B46C7E92823D7E94801A2
:1023D000D7E950230AF0D0FA02460B46C7E9262374
:1023E000D7E950014FF00002B04B0AF0C5FA02469F
:1023F0000B46C7E9242397ED280B09F0B9FF87EDB9
:10240000220BD7E94601D7E922230AF091FD0246C3
:102410000B46C7E92023D7E94E01D7E922230AF06A
:1024200087FD02460B46C7E91E23D7E92001D7E9FD
:1024300020230AF053FC02460B46D7E926010AF096
:1024400099FA02460B4643EC172BB0EE470AF0EE22
:10245000670A09F08DFF87ED1C0BD7E92001D7E94A
:102460001E230AF03BFC02460B46D7E94C010AF05A
:1024700081FA02460B4610461946D7E91C230AF09A
:1024800057FD02460B46C7E91A23D7E91E01D7E9D3
:102490001E230AF023FC02460B46D7E924010AF06A
:1024A00069FA02460B4614461D46D7E91A01D7E9D8
:1024B0001A230AF013FC02460B46204629460AF06E
:1024C00059FA02460B4643EC172BB0EE470AF0EEE2
:1024D000670A09F04DFF87ED180B07F15804D7E99B
:1024E0002E01D7E922230AF023FD02460B46C4E958
:1024F000002307F15803D7E92001D3E900230AF0AC
:10250000EDFB02460B46D7E92C010AF033FA0246EE
:102510000B4607F1500410461946D7E91C230AF070
:1025200007FD02460B46C4E9002307F15803D7E92B
:102530001E01D3E900230AF0D1FB02460B46D7E97E
:102540002A010AF017FA02460B4614461D4607F107
:102550005003D7E91A01D3E900230AF0BFFB024672
:102560000B46204629460AF005FA02460B4607F1BB
:10257000480410461946D7E918230AF0D9FC024648
:102580000B46C4E9002307F1400407F14803D3E9EF
:102590000001D7E918230AF0CBFC02460B46C4E938
:1025A000002307F14003D7E91A01D3E900230AF019
:1025B00095FB02460B4614461D4607F15003D3E92E
:1025C000000122462B460AF0D5F902460B4607F1D8
:1025D000380410461946D7E91C230AF0A9FC024624
:1025E0000B46C4E9002307F13803D7E92001D3E9FA
:1025F00000230AF073FB02460B4614461D4607F102
:102600005803D3E9000122462B460AF0B3F90246EB
:102610000B4614461D4607F14003D7E91E01D3E9D6
:1026200000230AF05BFB02460B46204629460AF0CF
:10263000A1F902460B4607F1300410461946D7E9C6
:1026400022230AF075FC02460B46C4E9002307F179
:10265000400393ED000BFEF7ADFF55EC104B07F177
:10266000300393ED000BFEF7A5FF53EC102B204633
:1026700029460AF081F902460B4614461D4607F129
:10268000380393ED000BFEF795FF53EC102B20461B
:1026900029460AF071F902460B4614461D46024BC4
:1026A00006E000BF700E0020400E00200000F03F4A
:1026B000D3E90823104619464FF000028A4B0AF06E
:1026C0005BF902460B46204629460AF031FC0246D9
:1026D0000B4610461946D7E93A230AF071FD034626
:1026E000002B00D0DBE0814BD3E9042307F1300459
:1026F00010461946D4E900230AF03CF902460B467D
:102700007B49C1E90423794BD3E9062307F1380457
:1027100010461946D4E900230AF02CF902460B466C
:102720007349C1E90623724B93ED047BB0EE470A6F
:10273000F0EE670AFEF73EFF53EC102B10461946E9
:10274000D7E93C230AF05AFD0346002B13D1684B0E
:1027500093ED067BB0EE470AF0EE670AFEF72AFF1C
:1027600053EC102B10461946D7E93C230AF046FDDE
:102770000346002B03D00323C7F854318FE05B4B93
:10278000D3E9082307F1400410461946D4E9002391
:102790000AF0F0F802460B465549C1E90823544BAC
:1027A000D3E90823104619464FF000024FF000030A
:1027B0000AF010FD0346002B19D0D7E95001D7E9E4
:1027C00040230AF08BFA02460B46C7E95023D7F89C
:1027D00048310133C7F84831D7F84821D7F80C31D0
:1027E0009A4203DD0223C7F8543158E0E4E5404B38
:1027F00093ED045B3E4B93ED066B3D4B93ED087BF5
:1028000007F12C0107F1280207F124030868116879
:102810001A68B0EE450AF0EE650AB0EE461AF0EE20
:10282000661AB0EE472AF0EE672AFFF79DFAB0EE7F
:10283000407AF0EE607A2E4B83ED007B2C4BD3E98F
:1028400000012A4BD3E900230AF0BAFC0346002B0F
:102850000BD0D7E95001D7E93E230AF03FFA0246F0
:102860000B46C7E95023FFF7CCBBD7F848310133FB
:10287000C7F84831D7F84821D7F80C319A4203DD20
:102880000223C7F854310AE0D7E95001D7E94023C1
:102890000AF024FA02460B46C7E950238CE5134A96
:1028A000D7F84C319362114AD7F84831D3620F4BB5
:1028B000D3E9042307F120010968C1E900230B4B88
:1028C000D3E90623D7F86811C1E90023074BD3E900
:1028D0000823D7F86C11C1E90023D7F85431184602
:1028E00007F5AC77BD46B0BD0000F03F400E0020BC
:1028F000700E0020AFF3008080B58AB000AF786022
:10290000396000237B6200233B620023FB610023CC
:10291000BB617B681B8A9BB27B627B6A23F440535A
:102920007B623B68DB881A467B6A13437B627B6A67
:102930009AB27B681A827B689B899BB27B627B6AB6
:1029400023F4B05323F00C037B623B689A883B6806
:102950001B8913439AB23B685B8913439BB21A46A7
:102960007B6A13437B627B6A9AB27B689A817B683D
:102970009B8A9BB27B627B6A23F440737B623B68D9
:102980009B891A467B6A13437B627B6A9AB27B6897
:102990009A8207F10803184602F0D6FF7B68314A95
:1029A000934203D07B68304A934202D17B693B62F9
:1029B00001E03B693B627B689B899BB29BB21BB287
:1029C000002B0CDA3A6A13469B0013449A001A440F
:1029D0003B681B685B00B2FBF3F3FB610BE03A6AF8
:1029E00013469B0013449A001A443B681B689B00E3
:1029F000B2FBF3F3FB61FB691C4AA2FB03235B09F7
:102A00001B017B627B6A1B09642202FB03F3FA69E8
:102A1000D31ABB617B689B899BB29BB21BB2002B14
:102A20000CDABB69DB003233104AA2FB03235B09DB
:102A300003F007037A6A13437B620BE0BB691B0157
:102A400032330A4AA2FB03235B0903F00F037A6ABD
:102A500013437B627B6A9AB27B681A812837BD4632
:102A600080BD00BF00100140001401401F85EB51E4
:102A700080B483B000AF78600B46FB70FB78002B0E
:102A800008D07B689B899BB243F400539AB27B6861
:102A90009A8107E07B689B899BB223F400539AB22A
:102AA0007B689A810C37BD465DF8047B704700BF98
:102AB00080B483B000AF78600B467B807B88C3F323
:102AC00008039AB27B689A800C37BD465DF8047B98
:102AD000704700BF80B483B000AF78607B689B888C
:102AE0009BB2C3F308039BB218460C37BD465DF892
:102AF000047B704780B487B000AF78600B467B8062
:102B000013467B7000233B610023FB600023BB6006
:102B100000237B617B687B617B88DBB25B09DBB276
:102B20003B617B8803F01F03FB60FB68012202FA14
:102B300003F3BB603B69012B03D17B690C337B61E1
:102B400009E03B69022B03D17B6910337B6102E012
:102B50007B6914337B617B78002B06D07B697A69B3
:102B60001168BA680A431A6006E07B697A691168DD
:102B7000BA68D2430A401A601C37BD465DF8047B30
:102B8000704700BF80B485B000AF78600B467B8093
:102B90000023FB737B681B889AB27B8813409BB22F
:102BA000002B02D00123FB7301E00023FB73FB7BAE
:102BB00018461437BD465DF8047B704780B483B077
:102BC00000AF78600B467B807B88DB439AB27B68E2
:102BD0001A800C37BD465DF8047B704780B487B01F
:102BE00000AF78600B467B800023FB6000237B6195
:102BF0000023BB600023FB747B88DBB25B09DBB284
:102C0000BB607B8803F01F037B617B69012202FAB2
:102C100003F37B61BB68012B07D17B689B899BB267
:102C20001A467B6913407B6111E0BB68022B07D118
:102C30007B681B8A9BB21A467B6913407B6106E066
:102C40007B689B8A9BB21A467B6913407B617B88B9
:102C50001B0A9BB2FB60FB68012202FA03F3FB60D4
:102C60007B681B889BB21A46FB681340FB607B693C
:102C7000002B05D0FB68002B02D00123FB7401E080
:102C80000023FB74FB7C18461C37BD465DF8047BB3
:102C9000704700BF80B584B000AF78600023FB6050
:102CA00006E04FF47A7000F00BF8FB680133FB602C
:102CB000FA687B689A42F4D31037BD4680BD00BFE6
:102CC00080B485B000AF78607B682A2202FB03F3F2
:102CD0000133FB60FB681A4600BFB2F10102FBD171
:102CE000FA601437BD465DF8047B704780B485B048
:102CF00000AF7860084611461A4603467B800B46B3
:102D00007B7013463B700023FB737B687A881A80C4
:102D10007B682D4A5A607B687A789A707B683A782B
:102D2000DA707B681B88B3F5807F21D0B3F5807F94
:102D300004DC102B30D0402B24D039E0B3F5806F69
:102D40000CD0B3F5805F33D17B6801229A817B6818
:102D50000122DA817B681D4A9A602CE07B6804229C
:102D60009A817B680422DA817B68194A9A6022E0A2
:102D70007B6810229A817B681022DA817B68154A71
:102D80009A6018E07B6840229A817B684022DA8151
:102D90007B68114A9A600EE07B684FF480729A81DA
:102DA0007B684FF48072DA817B680C4A9A6002E09B
:102DB000FF23FB7300BFFB7B5BB218461437BD4695
:102DC0005DF8047B704700BF007D01080015010815
:102DD000061501081E1501087E150108FE160108DA
:102DE00080B485B000AF78600B467B800023FB6029
:102DF000074BFB60FA687B6813440833FB60FB6891
:102E00001A467B8813601437BD465DF8047B704713
:102E10000074004080B485B000AF78600B467B80C2
:102E20000023FB60074BFB60FA687B681344143394
:102E3000FB60FB681A467B8813601437BD465DF85B
:102E4000047B70470074004080B582B000AF124B25
:102E50007B60124B3B6007E03B681A1D3A607A6862
:102E6000111D796012681A603B680D4A9342F3D3D2
:102E70000C480D494FF000028842B8BF40F8042BBF
:102E8000FADBDFF82800016841F47001016002F00C
:102E900001F90837BD4680BD542202080000002019
:102EA000640A0020680A002024E9012088ED00E07F
:102EB00080B400AFFEE700BF80B582B000AF78609D
:102EC00039607B689B78012B0AD17B681B88194687
:102ED0007B685A687B689B89386800F02DFF09E0A1
:102EE0007B681B8819467B685A687B689B893868B1
:102EF00000F012F87B68DB78012B09D17B681B8816
:102F000019467B68DA897B689B68386808F078FA2C
:102F10000837BD4680BD00BF2DE9F04FEBB000AFD4
:102F2000C7F8DC00C7F8D810C7F8D420C7F8D030ED
:102F3000D7F8D830C7F8A431D7F8A431C7F8903102
:102F4000D7F8A4319B08C7F8A4310023C7F89C31F7
:102F50000023C7F8A031D7F8A431C7F89831D7F8C3
:102F60009C21D7F8A4311344C7F88C31D7F88C21B1
:102F7000D7F8A4311344C7F88831D7F88821D7F897
:102F8000A4311344C7F88431D7F89C31DA00D7F85C
:102F9000DC3013441B681911D7F88831DA00D7F8F0
:102FA000DC3013441B681B110B44C7F88031D7F881
:102FB0009C31DA00D7F8DC3013441B681911D7F8BC
:102FC0008831DA00D7F8DC3013441B681B11CB1AA8
:102FD000C7F87C31D7F88C31DA00D7F8DC301344ED
:102FE0001B681911D7F88431DA00D7F8DC301344A4
:102FF0001B681B110B44C7F87831D7F89C31DB00F4
:103000001A1DD7F8DC3013441B681911D7F8883122
:10301000DB001A1DD7F8DC3013441B681B110B446E
:10302000C7F87431D7F89C31DB001A1DD7F8DC30B3
:1030300013441B681911D7F88831DB001A1DD7F823
:10304000DC3013441B681B11CB1AC7F87031D7F85A
:103050009C31DA00D7F8DC309918D7F88021D7F8FE
:10306000783113440B60D7F88021D7F87831D31A20
:10307000C7F88031D7F88C31DB001A1DD7F8DC3067
:1030800013441B681911D7F88431DB001A1DD7F8D7
:10309000DC3013441B681B110B44C7F86C31D7F8A4
:1030A0009C31DB001A1DD7F8DC309918D7F8742151
:1030B000D7F86C3113440B60D7F87421D7F86C3112
:1030C000D31AC7F87431D7F88C31DB001A1DD7F842
:1030D000DC3013441B681911D7F88431DB001A1D4A
:1030E000D7F8DC3013441B681B11CB1AC7F87831B2
:1030F000D7F88C31DA00D7F8DC3013441B6819118B
:10310000D7F88431DA00D7F8DC3013441B681B1180
:10311000CB1AC7F86C31D7F8A0315B00C7F868311B
:10312000D7F86831DA00D7F8D43013441B68C7F8F1
:103130006431D7F86831DB001A1DD7F8D430134456
:103140001B68C7F86031D7F88C31DA00D7F8DC306B
:1031500003EB020ED7F8803118464FEAE071D7F83A
:1031600064311A464FEAE27302FB01F500FB03F4F7
:103170002C44A0FB0223E1180B461900C7F8C81025
:10318000DB17C7F8CC30D7F8C860D7F874311846C9
:103190004FEAE071D7F860311A464FEAE27302FB5A
:1031A00001F500FB03F42C44A0FB0223E1180B46BD
:1031B0001900C7F8C010DB17C7F8C430D7F8C03003
:1031C00033445B00CEF80030D7F88C31DB001A1D99
:1031D000D7F8DC3003EB020ED7F8743118464FEA0B
:1031E000E071D7F864311A464FEAE27302FB01F549
:1031F00000FB03F42C44A0FB0223E1180B4619004A
:10320000C7F8B810DB17C7F8BC30D7F8B860D7F8E4
:10321000803118464FEAE071D7F860311A464FEA1C
:10322000E27302FB01F500FB03F42C44A0FB022334
:10323000E1180B461900C7F8B010DB17C7F8B43017
:10324000D7F8B030F31A5B00CEF80030D7F87C2105
:10325000D7F878311344C7F88031D7F87C21D7F8F4
:103260007831D31AC7F87C31D7F87021D7F86C3190
:10327000D31AC7F87431D7F87021D7F86C311344DA
:10328000C7F87031D7F8A031DA00D7F8D43013443A
:103290001B68C7F85C31D7F8A031DB001A1DD7F8DE
:1032A000D43013441B68C7F85831D7F88831DA0096
:1032B000D7F8DC3003EB020ED7F8803118464FEA1E
:1032C000E071D7F85C311A464FEAE27302FB01F570
:1032D00000FB03F42C44A0FB0223E1180B46190069
:1032E000C7F8A810DB17C7F8AC30D7F8A860D7F834
:1032F000743118464FEAE071D7F858311A464FEA50
:10330000E27302FB01F500FB03F42C44A0FB022353
:10331000E1180B461900C7F8A010DB17C7F8A43056
:10332000D7F8A03033445B00CEF80030D7F88831AE
:10333000DB001A1DD7F8DC3003EB020ED7F874312E
:1033400018464FEAE071D7F85C311A464FEAE2734B
:1033500002FB01F500FB03F42C44A0FB0223E1185F
:103360000B461900C7F89810DB17C7F89C30D7F840
:103370009860D7F8803118464FEAE071D7F8583195
:103380001A464FEAE27302FB01F500FB03F42C44FA
:10339000A0FB0223E1180B461900C7F89010DB17B9
:1033A000C7F89430D7F89030F31A5B00CEF80030AD
:1033B000D7F8A02113465B001344C7F85431D7F85F
:1033C0005431DA00D7F8D43013441B68C7F85031B1
:1033D000D7F85431DB001A1DD7F8D43013441B68DA
:1033E000C7F84C31D7F88431DA00D7F8DC3003EB7A
:1033F000020ED7F87C3118464FEAE071D7F8503109
:103400001A464FEAE27302FB01F500FB03F42C4479
:10341000A0FB0223E1180B461900C7F88810DB1740
:10342000C7F88C30D7F88860D7F8703118464FEA63
:10343000E071D7F84C311A464FEAE27302FB01F50E
:1034400000FB03F42C44A0FB0223E1180B461900F7
:10345000C7F88010DB17C7F88430D7F880303344C2
:103460005B00CEF80030D7F88431DB001A1DD7F8A6
:10347000DC3003EB020ED7F8703118464FEAE071EA
:10348000D7F850311A464FEAE27302FB01F500FB10
:1034900003F42C44A0FB0223E1180B469A464FEAA2
:1034A000E37B5646D7F87C3118464FEAE071D7F8EF
:1034B0004C311A464FEAE27302FB01F500FB03F4BC
:1034C0002C44A0FB0223E1180B4698464FEAE3790F
:1034D0004346F31A5B00CEF80030D7F8A021D7F8A6
:1034E000D0301344C7F8A031D7F89C310133C7F866
:1034F0009C31D7F89831013BC7F89831D7F898310B
:10350000002B7FF42CADD7F8D0309B00C7F8D0301B
:10351000D7F8D8309B08C7F89431D6E2D7F8A43151
:10352000C7F89031D7F8A4319B08C7F8A43100231D
:10353000C7F8A0310023C7F89831B4E2D7F8A0212A
:10354000D7F8A0311344C7F86831D7F86821D7F805
:10355000A0311344C7F85431D7F8A031DA00D7F8B6
:10356000D43013441B68C7F85C31D7F8A031DB00B6
:103570001A1DD7F8D43013441B68C7F85831D7F850
:103580006831DA00D7F8D43013441B68C7F86431C7
:10359000D7F86831DB001A1DD7F8D43013441B6804
:1035A000C7F86031D7F85431DA00D7F8D430134473
:1035B0001B68C7F85031D7F85431DB001A1DD7F813
:1035C000D43013441B68C7F84C31D7F8A021D7F882
:1035D000D0301344C7F8A031D7F89831C7F89C31E0
:1035E00055E2D7F89C21D7F8A4311344C7F88C31A1
:1035F000D7F88C21D7F8A4311344C7F88831D7F80D
:103600008821D7F8A4311344C7F88431D7F89C3106
:10361000DA00D7F8DC3013441968D7F88831DA00BB
:10362000D7F8DC3013441B680B44C7F88031D7F857
:103630009C31DA00D7F8DC3013441968D7F88831A8
:10364000DA00D7F8DC3013441B68CB1AC7F87C319A
:10365000D7F89C31DB001A1DD7F8DC301344196809
:10366000D7F88831DB001A1DD7F8DC3013441B680B
:103670000B44C7F87431D7F89C31DB001A1DD7F81A
:10368000DC3013441968D7F88831DB001A1DD7F8ED
:10369000DC3013441B68CB1AC7F87031D7F88C3173
:1036A000DA00D7F8DC3013441968D7F88431DA002F
:1036B000D7F8DC3013441B680B44C7F87831D7F8CF
:1036C0009C31DA00D7F8DC309918D7F88021D7F888
:1036D000783113449B100B60D7F88021D7F87831EC
:1036E000D31AC7F88031D7F88C31DB001A1DD7F810
:1036F000DC3013441968D7F88431DB001A1DD7F881
:10370000DC3013441B680B44C7F86C31D7F89C318C
:10371000DB001A1DD7F8DC309918D7F87421D7F8D8
:103720006C3113449B100B60D7F87421D7F86C31BF
:10373000D31AC7F87431D7F88C31DB001A1DD7F8CB
:10374000DC3013441968D7F88431DB001A1DD7F830
:10375000DC3013441B68CB1AC7F87831D7F88C31AA
:10376000DA00D7F8DC3013441968D7F88431DA006E
:10377000D7F8DC3013441B68CB1AC7F86C31D7F884
:103780008C31DA00D7F8DC3003EB020ED7F8803149
:1037900018464FEAE071D7F864311A464FEAE273EF
:1037A00002FB01F500FB03F42C44A0FB0223E1180B
:1037B0000B461900B967DB17FB67BE6FD7F874318A
:1037C00018464FEAE071D7F860311A464FEAE273C3
:1037D00002FB01F500FB03F42C44A0FB0223E118DB
:1037E0000B4619003967DB177B673B6F33445B106F
:1037F000CEF80030D7F88C31DB001A1DD7F8DC305A
:1038000003EB020ED7F8743118464FEAE071D7F88F
:1038100064311A464FEAE27302FB01F500FB03F440
:103820002C44A0FB0223E1180B461900B966DB17F4
:10383000FB66BE6ED7F8803118464FEAE071D7F8C4
:1038400060311A464FEAE27302FB01F500FB03F414
:103850002C44A0FB0223E1180B4619003966DB1744
:103860007B663B6EF31A5B10CEF80030D7F87C21F4
:10387000D7F878311344C7F88031D7F87C21D7F8CE
:103880007831D31AC7F87C31D7F87021D7F86C316A
:10389000D31AC7F87431D7F87021D7F86C311344B4
:1038A000C7F87031D7F88831DA00D7F8DC3003EB8D
:1038B000020ED7F8803118464FEAE071D7F85C3134
:1038C0001A464FEAE27302FB01F500FB03F42C44B5
:1038D000A0FB0223E1180B461900B965DB17FB6555
:1038E000BE6DD7F8743118464FEAE071D7F85831F9
:1038F0001A464FEAE27302FB01F500FB03F42C4485
:10390000A0FB0223E1180B4619003965DB177B6524
:103910003B6D33445B10CEF80030D7F88831DB00C4
:103920001A1DD7F8DC3003EB020ED7F874311846B5
:103930004FEAE071D7F85C311A464FEAE27302FBB6
:1039400001F500FB03F42C44A0FB0223E1180B4615
:103950001900B964DB17FB64BE6CD7F880311846D8
:103960004FEAE071D7F858311A464FEAE27302FB8A
:1039700001F500FB03F42C44A0FB0223E1180B46E5
:1039800019003964DB177B643B6CF31A5B10CEF8CB
:103990000030D7F88431DA00D7F8DC3003EB020EC0
:1039A000D7F87C3118464FEAE071D7F850311A4603
:1039B0004FEAE27302FB01F500FB03F42C44A0FB89
:1039C0000223E1180B461900B963DB17FB63BE6BDA
:1039D000D7F8703118464FEAE071D7F84C311A46E3
:1039E0004FEAE27302FB01F500FB03F42C44A0FB59
:1039F0000223E1180B4619003963DB177B633B6B2D
:103A000033445B10CEF80030D7F88431DB001A1D48
:103A1000D7F8DC3003EB020ED7F8703118464FEAC6
:103A2000E071D7F850311A464FEAE27302FB01F514
:103A300000FB03F42C44A0FB0223E1180B46190001
:103A4000B962DB17FB62BE6AD7F87C3118464FEAD1
:103A5000E071D7F84C311A464FEAE27302FB01F5E8
:103A600000FB03F42C44A0FB0223E1180B461900D1
:103A70003962DB177B623B6AF31A5B10CEF80030C9
:103A8000D7F89C21D7F890311344C7F89C31D7F868
:103A90009C21D7F8D8309A42FFF4A3ADD7F89831DB
:103AA0000133C7F89831D7F8A4315A1ED7F89831A6
:103AB0009A42BFF443ADD7F8D0309B00C7F8D0305E
:103AC000D7F894319B08C7F89431D7F89431042B78
:103AD0003FF624ADD7F8D8309B08C7F89831D7F80F
:103AE000DC30C7F8E43007F1E402136803F10801A1
:103AF0001160D3E9002307F5A071C1E90023D7F8CD
:103B00004031C7F83C3107F5A073D3E90023190011
:103B1000B961DB17FB61BB69C7F8383107F1E40213
:103B2000136803F108011160D3E9002307F59871C8
:103B3000C1E90023D7F83031C7F82C3107F5987365
:103B4000D3E9002319003961DB177B613B69C7F8B2
:103B5000283107F1E402136803F108011160D3E989
:103B6000002307F59071C1E90023D7F82031C7F889
:103B70001C3107F59073D3E900231900B960DB17F6
:103B8000FB60BB68C7F8183107F1E402136803F162
:103B900008011160D3E9002307F58871C1E900230A
:103BA000D7F81031C7F80C3107F58873D3E9002333
:103BB00019003960DB177B603B68C7F80831D7F81C
:103BC0003C21D7F82C311A44D7F81C311A44D7F8C5
:103BD0000C311344C7F80431D7F83821D7F828310D
:103BE0001A44D7F818311A44D7F808311344C7F8E3
:103BF0000031D7F8E430203BC7F8E430D7F8E430A0
:103C00001A1DC7F8E420D7F804211A60D7F8E43069
:103C10001A1DC7F8E420D7F800211A60D7F83C2114
:103C2000D7F82C31D21AD7F81C311A44D7F80C31F6
:103C3000D31AC7F8FC30D7F83821D7F82831D21A70
:103C4000D7F818311A44D7F80831D31AC7F8F83022
:103C5000D7F8E4301A1DC7F8E420D7F8FC201A6022
:103C6000D7F8E4301A1DC7F8E420D7F8F8201A6016
:103C7000D7F83C21D7F828311A44D7F81C31D21A8A
:103C8000D7F80831D31AC7F8F430D7F83821D7F865
:103C90002C31D21AD7F81831D21AD7F80C31134474
:103CA000C7F8F030D7F8E4301A1DC7F8E420D7F889
:103CB000F4201A60D7F8E4301A1DC7F8E420D7F8CA
:103CC000F0201A60D7F83C21D7F82831D21AD7F85B
:103CD0001C31D21AD7F808311344C7F8EC30D7F8A2
:103CE0003821D7F82C311A44D7F81831D21AD7F81E
:103CF0000C31D31AC7F8E830D7F8E4301A1DC7F8EA
:103D0000E420D7F8EC201A60D7F8E4301A1DC7F881
:103D1000E420D7F8E8201A60D7F89831013BC7F8BB
:103D20009831D7F89831002B7FF4DDAE07F5D677C0
:103D3000BD46BDE8F08F00BF2DE9F04FEBB000AFFE
:103D4000C7F8DC00C7F8D810C7F8D420C7F8D030BF
:103D5000D7F8D830C7F8A431D7F8A431C7F89031D4
:103D6000D7F8A4319B08C7F8A4310023C7F89C31C9
:103D70000023C7F8A031D7F8A431C7F89831D7F895
:103D80009C21D7F8A4311344C7F88C31D7F88C2183
:103D9000D7F8A4311344C7F88831D7F88821D7F869
:103DA000A4311344C7F88431D7F89C31DA00D7F82E
:103DB000DC3013441B681911D7F88831DA00D7F8C2
:103DC000DC3013441B681B110B44C7F88031D7F853
:103DD0009C31DA00D7F8DC3013441B681911D7F88E
:103DE0008831DA00D7F8DC3013441B681B11CB1A7A
:103DF000C7F87C31D7F88C31DA00D7F8DC301344BF
:103E00001B681911D7F88431DA00D7F8DC30134475
:103E10001B681B110B44C7F87831D7F89C31DB00C5
:103E20001A1DD7F8DC3013441B681911D7F88831F4
:103E3000DB001A1DD7F8DC3013441B681B110B4440
:103E4000C7F87431D7F89C31DB001A1DD7F8DC3085
:103E500013441B681911D7F88831DB001A1DD7F8F5
:103E6000DC3013441B681B11CB1AC7F87031D7F82C
:103E70009C31DA00D7F8DC309918D7F88021D7F8D0
:103E8000783113440B60D7F88021D7F87831D31AF2
:103E9000C7F88031D7F88C31DB001A1DD7F8DC3039
:103EA00013441B681911D7F88431DB001A1DD7F8A9
:103EB000DC3013441B681B110B44C7F86C31D7F876
:103EC0009C31DB001A1DD7F8DC309918D7F8742123
:103ED000D7F86C3113440B60D7F87421D7F86C31E4
:103EE000D31AC7F87431D7F88C31DB001A1DD7F814
:103EF000DC3013441B681911D7F88431DB001A1D1C
:103F0000D7F8DC3013441B681B11CB1AC7F8783183
:103F1000D7F88C31DA00D7F8DC3013441B6819115C
:103F2000D7F88431DA00D7F8DC3013441B681B1152
:103F3000CB1AC7F86C31D7F8A0315B00C7F86831ED
:103F4000D7F86831DA00D7F8D43013441B68C7F8C3
:103F50006431D7F86831DB001A1DD7F8D430134428
:103F60001B68C7F86031D7F88C31DA00D7F8DC303D
:103F700003EB020ED7F8803118464FEAE071D7F80C
:103F800064311A464FEAE27302FB01F500FB03F4C9
:103F90002C44A0FB0223E1180B461900C7F8C810F7
:103FA000DB17C7F8CC30D7F8C860D7F8743118469B
:103FB0004FEAE071D7F860311A464FEAE27302FB2C
:103FC00001F500FB03F42C44A0FB0223E1180B468F
:103FD0001900C7F8C010DB17C7F8C430D7F8C030D5
:103FE000F31A5B00CEF80030D7F88C31DB001A1DD5
:103FF000D7F8DC3003EB020ED7F8743118464FEADD
:10400000E071D7F864311A464FEAE27302FB01F51A
:1040100000FB03F42C44A0FB0223E1180B4619001B
:10402000C7F8B810DB17C7F8BC30D7F8B860D7F8B6
:10403000803118464FEAE071D7F860311A464FEAEE
:10404000E27302FB01F500FB03F42C44A0FB022306
:10405000E1180B461900C7F8B010DB17C7F8B430E9
:10406000D7F8B03033445B00CEF80030D7F87C216D
:10407000D7F87831D31AC7F88031D7F87C21D7F830
:1040800078311344C7F87C31D7F87021D7F86C31F8
:104090001344C7F87431D7F87021D7F86C31D31AAC
:1040A000C7F87031D7F8A031DA00D7F8D43013440C
:1040B0001B68C7F85C31D7F8A031DB001A1DD7F8B0
:1040C000D43013441B68C7F85831D7F88831DA0068
:1040D000D7F8DC3003EB020ED7F8803118464FEAF0
:1040E000E071D7F85C311A464FEAE27302FB01F542
:1040F00000FB03F42C44A0FB0223E1180B4619003B
:10410000C7F8A810DB17C7F8AC30D7F8A860D7F805
:10411000743118464FEAE071D7F858311A464FEA21
:10412000E27302FB01F500FB03F42C44A0FB022325
:10413000E1180B461900C7F8A010DB17C7F8A43028
:10414000D7F8A030F31A5B00CEF80030D7F88831EA
:10415000DB001A1DD7F8DC3003EB020ED7F8743100
:1041600018464FEAE071D7F85C311A464FEAE2731D
:1041700002FB01F500FB03F42C44A0FB0223E11831
:104180000B461900C7F89810DB17C7F89C30D7F812
:104190009860D7F8803118464FEAE071D7F8583167
:1041A0001A464FEAE27302FB01F500FB03F42C44CC
:1041B000A0FB0223E1180B461900C7F89010DB178B
:1041C000C7F89430D7F8903033445B00CEF8003015
:1041D000D7F8A02113465B001344C7F85431D7F831
:1041E0005431DA00D7F8D43013441B68C7F8503183
:1041F000D7F85431DB001A1DD7F8D43013441B68AC
:10420000C7F84C31D7F88431DA00D7F8DC3003EB4B
:10421000020ED7F87C3118464FEAE071D7F85031DA
:104220001A464FEAE27302FB01F500FB03F42C444B
:10423000A0FB0223E1180B461900C7F88810DB1712
:10424000C7F88C30D7F88860D7F8703118464FEA35
:10425000E071D7F84C311A464FEAE27302FB01F5E0
:1042600000FB03F42C44A0FB0223E1180B461900C9
:10427000C7F88010DB17C7F88430D7F88030F31AFE
:104280005B00CEF80030D7F88431DB001A1DD7F878
:10429000DC3003EB020ED7F8703118464FEAE071BC
:1042A000D7F850311A464FEAE27302FB01F500FBE2
:1042B00003F42C44A0FB0223E1180B469A464FEA74
:1042C000E37B5646D7F87C3118464FEAE071D7F8C1
:1042D0004C311A464FEAE27302FB01F500FB03F48E
:1042E0002C44A0FB0223E1180B4698464FEAE379E1
:1042F000434633445B00CEF80030D7F8A021D7F80E
:10430000D0301344C7F8A031D7F89C310133C7F837
:104310009C31D7F89831013BC7F89831D7F89831DC
:10432000002B7FF42CADD7F8D0309B00C7F8D030ED
:10433000D7F8D8309B08C7F89431D6E2D7F8A43123
:10434000C7F89031D7F8A4319B08C7F8A4310023EF
:10435000C7F8A0310023C7F89831B4E2D7F8A021FC
:10436000D7F8A0311344C7F86831D7F86821D7F8D7
:10437000A0311344C7F85431D7F8A031DA00D7F888
:10438000D43013441B68C7F85C31D7F8A031DB0088
:104390001A1DD7F8D43013441B68C7F85831D7F822
:1043A0006831DA00D7F8D43013441B68C7F8643199
:1043B000D7F86831DB001A1DD7F8D43013441B68D6
:1043C000C7F86031D7F85431DA00D7F8D430134445
:1043D0001B68C7F85031D7F85431DB001A1DD7F8E5
:1043E000D43013441B68C7F84C31D7F8A021D7F854
:1043F000D0301344C7F8A031D7F89831C7F89C31B2
:1044000055E2D7F89C21D7F8A4311344C7F88C3172
:10441000D7F88C21D7F8A4311344C7F88831D7F8DE
:104420008821D7F8A4311344C7F88431D7F89C31D8
:10443000DA00D7F8DC3013441968D7F88831DA008D
:10444000D7F8DC3013441B680B44C7F88031D7F829
:104450009C31DA00D7F8DC3013441968D7F888317A
:10446000DA00D7F8DC3013441B68CB1AC7F87C316C
:10447000D7F89C31DB001A1DD7F8DC3013441968DB
:10448000D7F88831DB001A1DD7F8DC3013441B68DD
:104490000B44C7F87431D7F89C31DB001A1DD7F8EC
:1044A000DC3013441968D7F88831DB001A1DD7F8BF
:1044B000DC3013441B68CB1AC7F87031D7F88C3145
:1044C000DA00D7F8DC3013441968D7F88431DA0001
:1044D000D7F8DC3013441B680B44C7F87831D7F8A1
:1044E0009C31DA00D7F8DC309918D7F88021D7F85A
:1044F000783113449B100B60D7F88021D7F87831BE
:10450000D31AC7F88031D7F88C31DB001A1DD7F8E1
:10451000DC3013441968D7F88431DB001A1DD7F852
:10452000DC3013441B680B44C7F86C31D7F89C315E
:10453000DB001A1DD7F8DC309918D7F87421D7F8AA
:104540006C3113449B100B60D7F87421D7F86C3191
:10455000D31AC7F87431D7F88C31DB001A1DD7F89D
:10456000DC3013441968D7F88431DB001A1DD7F802
:10457000DC3013441B68CB1AC7F87831D7F88C317C
:10458000DA00D7F8DC3013441968D7F88431DA0040
:10459000D7F8DC3013441B68CB1AC7F86C31D7F856
:1045A0008C31DA00D7F8DC3003EB020ED7F880311B
:1045B00018464FEAE071D7F864311A464FEAE273C1
:1045C00002FB01F500FB03F42C44A0FB0223E118DD
:1045D0000B461900B967DB17FB67BE6FD7F874315C
:1045E00018464FEAE071D7F860311A464FEAE27395
:1045F00002FB01F500FB03F42C44A0FB0223E118AD
:104600000B4619003967DB177B673B6FF31A5B10AA
:10461000CEF80030D7F88C31DB001A1DD7F8DC302B
:1046200003EB020ED7F8743118464FEAE071D7F861
:1046300064311A464FEAE27302FB01F500FB03F412
:104640002C44A0FB0223E1180B461900B966DB17C6
:10465000FB66BE6ED7F8803118464FEAE071D7F896
:1046600060311A464FEAE27302FB01F500FB03F4E6
:104670002C44A0FB0223E1180B4619003966DB1716
:104680007B663B6E33445B10CEF80030D7F87C215C
:10469000D7F87831D31AC7F88031D7F87C21D7F80A
:1046A00078311344C7F87C31D7F87021D7F86C31D2
:1046B0001344C7F87431D7F87021D7F86C31D31A86
:1046C000C7F87031D7F88831DA00D7F8DC3003EB5F
:1046D000020ED7F8803118464FEAE071D7F85C3106
:1046E0001A464FEAE27302FB01F500FB03F42C4487
:1046F000A0FB0223E1180B461900B965DB17FB6527
:10470000BE6DD7F8743118464FEAE071D7F85831CA
:104710001A464FEAE27302FB01F500FB03F42C4456
:10472000A0FB0223E1180B4619003965DB177B65F6
:104730003B6DF31A5B10CEF80030D7F88831DB0000
:104740001A1DD7F8DC3003EB020ED7F87431184687
:104750004FEAE071D7F85C311A464FEAE27302FB88
:1047600001F500FB03F42C44A0FB0223E1180B46E7
:104770001900B964DB17FB64BE6CD7F880311846AA
:104780004FEAE071D7F858311A464FEAE27302FB5C
:1047900001F500FB03F42C44A0FB0223E1180B46B7
:1047A00019003964DB177B643B6C33445B10CEF833
:1047B0000030D7F88431DA00D7F8DC3003EB020E92
:1047C000D7F87C3118464FEAE071D7F850311A46D5
:1047D0004FEAE27302FB01F500FB03F42C44A0FB5B
:1047E0000223E1180B461900B963DB17FB63BE6BAC
:1047F000D7F8703118464FEAE071D7F84C311A46B5
:104800004FEAE27302FB01F500FB03F42C44A0FB2A
:104810000223E1180B4619003963DB177B633B6BFE
:10482000F31A5B10CEF80030D7F88431DB001A1D84
:10483000D7F8DC3003EB020ED7F8703118464FEA98
:10484000E071D7F850311A464FEAE27302FB01F5E6
:1048500000FB03F42C44A0FB0223E1180B461900D3
:10486000B962DB17FB62BE6AD7F87C3118464FEAA3
:10487000E071D7F84C311A464FEAE27302FB01F5BA
:1048800000FB03F42C44A0FB0223E1180B461900A3
:104890003962DB177B623B6A33445B10CEF8003031
:1048A000D7F89C21D7F890311344C7F89C31D7F83A
:1048B0009C21D7F8D8309A42FFF4A3ADD7F89831AD
:1048C0000133C7F89831D7F8A4315A1ED7F8983178
:1048D0009A42BFF443ADD7F8D0309B00C7F8D03030
:1048E000D7F894319B08C7F89431D7F89431042B4A
:1048F0003FF624ADD7F8D8309B08C7F89831D7F8E1
:10490000DC30C7F8E43007F1E402136803F1080172
:104910001160D3E9002307F5A071C1E90023D7F89E
:104920004031C7F83C3107F5A073D3E900231900E3
:10493000B961DB17FB61BB69C7F8383107F1E402E5
:10494000136803F108011160D3E9002307F598719A
:10495000C1E90023D7F83031C7F82C3107F5987337
:10496000D3E9002319003961DB177B613B69C7F884
:10497000283107F1E402136803F108011160D3E95B
:10498000002307F59071C1E90023D7F82031C7F85B
:104990001C3107F59073D3E900231900B960DB17C8
:1049A000FB60BB68C7F8183107F1E402136803F134
:1049B00008011160D3E9002307F58871C1E90023DC
:1049C000D7F81031C7F80C3107F58873D3E9002305
:1049D00019003960DB177B603B68C7F80831D7F8EE
:1049E0003C21D7F82C311A44D7F81C311A44D7F897
:1049F0000C311344C7F80431D7F83821D7F82831DF
:104A00001A44D7F818311A44D7F808311344C7F8B4
:104A10000031D7F8E430203BC7F8E430D7F8E43071
:104A20001A1DC7F8E420D7F804211A60D7F8E4303B
:104A30001A1DC7F8E420D7F800211A60D7F83C21E6
:104A4000D7F82C31D21AD7F81C311A44D7F80C31C8
:104A5000D31AC7F8FC30D7F83821D7F82831D21A42
:104A6000D7F818311A44D7F80831D31AC7F8F830F4
:104A7000D7F8E4301A1DC7F8E420D7F8FC201A60F4
:104A8000D7F8E4301A1DC7F8E420D7F8F8201A60E8
:104A9000D7F83C21D7F82831D21AD7F81C31D21ACE
:104AA000D7F808311344C7F8F430D7F83821D7F8CD
:104AB0002C311A44D7F81831D21AD7F80C31D31A3E
:104AC000C7F8F030D7F8E4301A1DC7F8E420D7F85B
:104AD000F4201A60D7F8E4301A1DC7F8E420D7F89C
:104AE000F0201A60D7F83C21D7F828311A44D7F8BB
:104AF0001C31D21AD7F80831D31AC7F8EC30D7F8DE
:104B00003821D7F82C31D21AD7F81831D21AD7F861
:104B10000C311344C7F8E830D7F8E4301A1DC7F851
:104B2000E420D7F8EC201A60D7F8E4301A1DC7F853
:104B3000E420D7F8E8201A60D7F89831013BC7F88D
:104B40009831D7F89831002B7FF4DDAE07F5D67792
:104B5000BD46BDE8F08F00BF80B584B000AFF860FF
:104B60007A603B600B46FB72F86803F0E5FEF8687C
:104B700000F01CF8FB683A68C3F8E425FB68BA69E2
:104B8000C3F8E825FB687A68C3F8EC25FB7AF86877
:104B9000194605F031FFFB68D3F8E8351B689847E4
:104BA000F86803F025FF1037BD4680BD80B483B0A0
:104BB00000AF7860002318460C37BD465DF8047BD3
:104BC000704700BF80B584B000AF786007F108037C
:104BD0007868194604F036FB3B7A03F01F03012B7B
:104BE0000AD0022B0FD0002B14D107F108037868EC
:104BF000194603F049FF16E007F1080378681946E3
:104C000003F092FF0FE007F108037868194603F0FC
:104C1000BFFF08E03B7A23F07F03DBB278681946D8
:104C200006F07AF800BF002318461037BD4680BD55
:104C300080B584B000AF78600B46FB70FB78002B2A
:104C400044D17B6803F55D73FB607B6893F8113199
:104C5000032B4ED1FB68DA69FB689B689A4220D926
:104C6000FB68DA69FB689B68D21AFB68DA617B68CB
:104C7000DB78012B06D1FB68DA68FB689B681A4475
:104C8000FB68DA60FB68D968FB689A68FB68DB69D7
:104C9000934228BF13469BB278681A4606F0E6F99D
:104CA00027E07B68D3F8E4351B69002B0AD07B68CA
:104CB00093F81231032B05D17B68D3F8E4351B69D7
:104CC00078689847786806F0E5F912E07B68D3F8D1
:104CD000E4359B69002B0CD07B6893F81231032BD1
:104CE00007D17B68D3F8E4359B69FA787868114678
:104CF0009847002318461037BD4680BD80B584B064
:104D000000AF78600B46FB70FB78002B6CD17B68A2
:104D100003F58E73FB607B6893F81131022B56D13B
:104D2000FB68DA69FB689B689A421CD9FB68DA6900
:104D3000FB689B68D21AFB68DA617B68DB78012B21
:104D400006D1FB68DA68FB689B681A44FB68DA6086
:104D5000FB68DA68FB68DB699BB2786811461A4623
:104D600006F050F933E0FB681B6AFA689268B3FBFF
:104D7000F2F102FB01F29B1A002B14D1FB681A6AB4
:104D8000FB689B689A420ED3FB681A6AFB685B6AF1
:104D90009A4208D278680021002206F033F9FB68B5
:104DA00000225A6213E07B68D3F8E435DB68002BFD
:104DB0000AD07B6893F81231032B05D17B68D3F8B6
:104DC000E435DB6878689847786806F07BF97B689B
:104DD00093F81631012B1AD1786800F01DF87B6822
:104DE000002283F8162112E07B68D3F8E4355B6972
:104DF000002B0CD07B6893F81231032B07D17B6812
:104E0000D3F8E4355B69FA7878681146984700234F
:104E100018461037BD4680BD80B483B000AF7860BF
:104E20007B681B69044A12685A60002318460C37D5
:104E3000BD465DF8047B7047A00E002080B582B0AF
:104E400000AF7860786800214022002305F056FE0C
:104E5000786880214022002305F050FE7B68012203
:104E600083F812217B68D3F8E8355B687A6892781A
:104E700010469847002318460837BD4680BD00BF3E
:104E800080B582B000AF78607B68D3F8E8351B69E5
:104E900098477B6893F813217B6883F812217B681D
:104EA000032283F81221002318460837BD4680BD2F
:104EB00080B582B000AF78607B6893F812217B6880
:104EC00083F813217B68042283F812217B68D3F8CE
:104ED000E835DB689847002318460837BD4680BD93
:104EE00080B582B000AF78607B68D3F8E435DB69C9
:104EF000002B05D07B68D3F8E435DB6978689847E8
:104F0000002318460837BD4680BD00BF80B582B07B
:104F100000AF78600B46FB707B68D3F8E4351B6804
:104F2000FA787868114698477B68D3F8E8359B682B
:104F30009847002318460837BD4680BD80B582B02B
:104F400000AF78600B46FB707B68D3F8E4355B6894
:104F5000FA78786811469847002318460837BD4606
:104F600080BD00BF80B582B000AF78607B68D3F8A9
:104F7000E4351B6A78689847002318460837BD4611
:104F800080BD00BF80B582B000AF78607B68D3F889
:104F9000E4355B6A78689847002318460837BD46B1
:104FA00080BD00BF80B582B000AF78607B68D3F869
:104FB000E8355B6998477B68012283F81521002357
:104FC00018460837BD4680BD80B582B000AF786016
:104FD0007B68D3F8E8359B6998477B68D3F8E4355C
:104FE0005B687868002198477B68002283F8152168
:104FF000002318460837BD4680BD00BF80B483B08B
:1050000000AF03463960FB7197F90730002B0BDACC
:105010000D49FB7903F00F03043B3A68D2B2120149
:10502000D2B20B441A7609E0084997F907303A687A
:10503000D2B21201D2B20B4483F800230C37BD4622
:105040005DF8047B704700BF00ED00E000E100E088
:1050500080B582B000AF78607B68B3F1807F01D308
:10506000012311E00A4A7B6823F07F43013B536030
:105070004FF0FF300F21FFF7C1FF054B00229A6070
:10508000034B07221A60002318460837BD4680BD2F
:1050900010E000E080B598B002AF0023A7F85430CC
:1050A0000023A7F8523002F02BFC00F03FF806F086
:1050B00081FA02F035FA102005F00EFF134B1B7831
:1050C0001A46134B33F81230DBB2184606F00EFBCB
:1050D00000F064FF002000210022002301F04EF8C0
:1050E000022006F0B3FF0B4B00930B4801210B4A43
:1050F0000B4BFFF731FD0B4805F0E0FB0A48FFF7CB
:10510000A7FF002387F85730FEE700BF820000208A
:10511000700000200400002038470120A400002077
:105120006C010020611400084090020080B582B03C
:1051300000AF0820012100F0B1FC144801F094FEFA
:1051400004233B6001233B710023BB7101237B716E
:105150000023FB713B460D48194601F015FF042062
:10516000012100F09BFC40233B6001233B710023A5
:10517000BB7101237B710023FB713B460448194638
:1051800001F002FF0837BD4680BD00BF000C0240A1
:105190000008024000000000B0B59AB002AFC04B5A
:1051A0001B68013BBE4A1360BE4B1B680133BD4AFE
:1051B0001360BC4B1B68BC4A128893FBF2F102FBE4
:1051C00001F29B1A002B40F09D8300BFB74B1B8858
:1051D000002BFBD0B64B00221A600023A7F85E30EC
:1051E00020E0B7F95E30B7F95E205200B14931F8DE
:1051F000122012B2B04941F82320B7F95E3003F50E
:105200008063B7F95E205200AC4931F8122012B227
:10521000A94941F82320B7F85E309BB201339BB215
:10522000A7F85E30B7F95E30B3F5806FD9DBA04BDD
:1052300001221A600023A7F85E301AE0B7F95E3049
:10524000B7F95E209E4951F822209E4941F823205B
:10525000B7F95E30B7F95E209B4951F822209B498F
:1052600041F82320B7F85E309BB201339BB2A7F818
:105270005E30B7F95E30B3F5006FDFDB8D484FF479
:10528000806103F0CFFA8D484FF4806103F0CAFAD1
:105290008F4B1B68012B25D18E4B1B68032B08D12C
:1052A0000120844904F0CEFD0120844904F0CAFDA8
:1052B00018E0884B1B68052B08D102207D4904F0BB
:1052C000C1FD02207D4904F0BDFD0BE0814B1B6850
:1052D000062B07D10320774904F0B4FD032077495A
:1052E00004F0B0FD4FF000024FF00003C7E90C23BB
:1052F0004FF000024FF00003C7E90A234FF000020D
:105300004FF00003C7E908234FF000024FF00003FD
:10531000C7E906234FF000024FF00003C7E904235A
:105320004FF000024FF00003C7E9022307F13004F9
:1053300007F12803009307F1200301934FF48060E5
:105340005C495E4A2346FCF757F997ED0C5B97EDF5
:105350000A6B97ED087B07F1180407F1100300931F
:1053600007F1080301934FF480605249534AB0EEAD
:10537000450AF0EE650AB0EE461AF0EE661AB0EE97
:10538000472AF0EE672A9FED403B2346FCF7B8FD25
:105390004FF00003BB650023A7F85E3046E1B7F984
:1053A0005E40B7F95E30454A32F813301BB21846FA
:1053B00007F02EFCD7E9042307F0DCFA02460B467F
:1053C0001046194607F04CFF0546B7F95E30394ADA
:1053D00032F813301BB2184607F01AFCD7E906233F
:1053E00007F0C8FA02460B461046194607F038FF88
:1053F000034600EE105A00EE903A07F017F8F0EE70
:10540000407A354AA3001344C3ED007AB7F95E3001
:10541000002B40F39880B7F95E302F4A9B0013446D
:1054200093ED007AB7F95E30013B2B4A9B001344A1
:10543000D3ED007A77EE677A17EE900A07F0FAFB61
:1054400002460B461046194611A3D3E9002307F084
:10545000CBFE0346002B41D0B86D07F0EBFB0246B4
:105460000B46104619460CA3D3E9002307F082FA35
:1054700002460B461046194607F0F2FE0346BB658E
:1054800061E000BFAFF300807B14AE47E17A843F58
:105490004AD8124DFB2109404AD8124DFB21194030
:1054A0008C0A00209C0A002080000020880A00202E
:1054B000980A0020004F00203807012028AF002064
:1054C000045F0020344D012028E7002028B7002089
:1054D000C40A00201CE9012040950120B7F95E3084
:1054E000894A9B00134493ED007AB7F95E30013B83
:1054F000854A9B001344D3ED007A77EE677A17EE66
:10550000900A07F097FB02460B461046194676A311
:10551000D3E9002307F05EFE0346002B13D0B86DDD
:1055200007F088FB02460B461046194670A3D3E9E4
:10553000002307F021FA02460B461046194607F0F1
:105540008FFE0346BB65B7F95E30B7F95E206E4942
:1055500092000A4492ED007AD7ED167A77EE277A18
:105560006A4A9B001344C3ED007AB7F95E40B7F96D
:105570005E30664A9B001344D3ED007AB1EE007AA8
:10558000C7EE877A17EE900A07F054FB02460B46E7
:105590001046194658A3D3E9002307F0C9FC024678
:1055A0000B461046194656A3D3E9002307F096FB95
:1055B00002460B461046194607F02AFE0246544B97
:1055C00043F82420B7F95E40B7F95E304E4A9B009D
:1055D0001344D3ED007AB1EE007AC7EE877A17EE66
:1055E000900A07F027FB02460B461046194642A3D5
:1055F000D3E9002307F09CFC02460B4610461946EF
:105600003FA3D3E9002307F069FB02460B4610468F
:10561000194607F0FDFD02463E4B43F82420B7F83B
:105620005E309BB201339BB2A7F85E30B7F95E30B3
:10563000B3F5806FFFF6B3AE35484FF4806103F0E9
:1056400037F9334834494FF4806202F0B5FF012343
:105650000093314831494FF48062002302F022FC6C
:105660002E484FF4806102F043FC02462C4B1A6036
:105670002C4B1B682C4A13602B4B1B682B4A136066
:105680002B4B1B6825484FF480611A4602F062FCE0
:1056900003469AB2274B1A80214B1B684FF4806255
:1056A00092FBF3F37B654FF480627B6D92FBF3F327
:1056B0003B65214B4FF000021A603B6D002B00F060
:1056C000E0800023A7F85E309EE01C4B4DF6F00210
:1056D0001A801B4B42F210721A800023A7F85C302C
:1056E00073E000BFAFF300804AD8124DFB2109C020
:1056F0004AD8124DFB2119404AD8124DFB210940CE
:105700000000000000889340409501201C7F00208D
:10571000289F0020248F0020A82E002098A501207B
:10572000047F002000570020107F0020249F0020CD
:1057300088000020A84E0020940A0020348D01200B
:10574000A42E0020B7F95E307A6D02FB03F2B7F9A0
:105750005C3013446D4A52F823206D4B1B881BB2FA
:105760009A420DDDB7F95E307A6D02FB03F2B7F9AC
:105770005C301344654A52F823309AB2644B1A8065
:10578000B7F95E307A6D02FB03F2B7F95C3013446F
:105790005E4A52F823205F4B1B881BB29A420DDAF7
:1057A000B7F95E307A6D02FB03F2B7F95C3013444F
:1057B000564A52F823309AB2564B1A80B7F85C30EA
:1057C0009BB201339BB2A7F85C30B7F95C207B6DCC
:1057D0009A42B7DB4E4B1B881AB24E4B1B881BB24A
:1057E000D31A07EE903AB8EEE77A4B4BD3ED007A36
:1057F00077EE277A484BC3ED007AB7F85E309BB25C
:1058000001339BB2A7F85E30B7F95E203B6D9A4238
:10581000FFF65BAF414B9B68404A53603F4BDB68F0
:105820003E4A93603D4B1B693C4AD3603A4B93ED33
:10583000007A3B6D07EE903AF8EEE77AC7EE277AEA
:10584000364BC3ED047A354B93ED017A334BD3EDF0
:10585000027A37EE277A314BD3ED037A37EE277A87
:105860002E4BD3ED047A77EE277AB1EE007AC7EEAD
:10587000877AFDEEE77AC7ED017ABA88284B1A805D
:1058800002E0274B00221A80264B1B881BB2002BFC
:1058900014DD254BD3ED007AFDEEE77AC7ED017AF2
:1058A000BB889BB21AB2214B1B6819461C4B1B8844
:1058B0001BB210461A4601F03DFF05E042F210709F
:1058C0000121012201F036FF194B1B689B0219468A
:1058D000184B1B68184A52F82330B1FBF3F307EE5C
:1058E000903AF8EE677AB0EE670A02F097FE134836
:1058F000012100F021FA1248012100F01DFA114B9C
:1059000000221A806037BD46B0BD00BF289F00202E
:10591000348D0120A42E0020940A002098B5012087
:105920002C070120A84E002094A50120107F002004
:10593000047F00201CE90120980100200020014084
:1059400000210140880A002080B489B000AF78604F
:105950000023BB6100237B610023FB6102233B61C9
:105960000023FB600223BB60484B9B6803F00C03E1
:10597000BB61BB69042B07D0082B09D0002B3FD19A
:105980007B68434A1A603FE07B68424A1A603BE00A
:105990003E4B5B6803F480039B0DFB603B4B5B68F5
:1059A00003F03F03BB60FB68002B0DD0394ABB6896
:1059B000B2FBF3F2354B596847F6C0730B409B09B5
:1059C00003FB02F3FB610CE0314ABB68B2FBF3F26C
:1059D0002E4B596847F6C0730B409B0903FB02F33B
:1059E000FB612A4B5B6803F440331B0C01335B0003
:1059F0003B61FA693B69B2FBF3F27B681A6003E032
:105A00007B68234A1A6000BF204B9B6803F0F003B9
:105A1000BB61BB691B09BB611F4ABB6913441B788F
:105A2000DBB27B617B681A687B69DA407B685A600D
:105A3000164B9B6803F4E053BB61BB699B0ABB61D7
:105A4000154ABB6913441B78DBB27B617B685A68DB
:105A50007B69DA407B689A600C4B9B6803F4604377
:105A6000BB61BB695B0BBB610B4ABB6913441B7811
:105A7000DBB27B617B685A687B69DA407B68DA60FD
:105A80002437BD465DF8047B704700BF00380240F4
:105A90000024F40000127A009000002080B483B04B
:105AA00000AF78600B46FB70FB78002B06D00949ED
:105AB000084B1A6B7B6813430B6306E00549054BE3
:105AC0001A6B7B68DB4313400B630C37BD465DF8F4
:105AD000047B70470038024080B483B000AF786028
